:1000000012C02CC02BC02AC029C028C027C026C0BF
:1000100025C024C023C022C021C020C01FC01EC0D4
:100020001DC01CC01BC011241FBECFE5D4E0DEBF25
:10003000CDBF10E0A0E6B0E0E0E5F2E002C0059040
:100040000D92AC36B107D9F720E0ACE6B0E001C0C4
:100050001D92AD36B207E1F702D0F8C0D1CF2FEF35
:1000600084E39CE0215080409040E1F700C0000014
:100070001AD080E690E076D0C12CD12C7601B70161
:10008000A60185E690E03FD02FEF89E698E1215068
:1000900080409040E1F700C000002FEFC21AD20A62
:1000A000E20AF20AECCFA39AA59A089590916C0007
:1000B00091110FC097E025E32A95F1F7000080FF2A
:1000C00002C0AD9A01C0AD988695AB98AB9A91509D
:1000D00091F708950F931F93CF93DF93FC018081D5
:1000E000882361F0EF0121968F010B5E1F4FDEDF49
:1000F0008991882319F0C017D107C9F7DF91CF91F3
:100100001F910F910895CF92DF92EF92FF920F937C
:100110001F93CF93DF9300D000D000D0CDB7DEB7D0
:100120008C016A017B0181E0C1DFC801D3DF89E670
:1001300090E0D0DF4AE0BE016F5F7F4FC60153D031
:10014000C9DF82E0B3DF26960FB6F894DEBF0FBE9C
:10015000CDBFDF91CF911F910F91FF90EF90DF9076
:10016000CF900895CF93DF93EC01A49A83E09EDFB4
:10017000CE01B0DF82E09ADF8FE19EE40197F1F7D4
:1001800000C0000081E080936C00A598AD9AAB9808
:100190008FE19EE40197F1F700C000009D9B09C02C
:1001A000AC9A8FE19EE40197F1F700C000009D99A1
:1001B000F7CFAC988FE19EE40197F1F700C0000003
:1001C00010926C00A59AAD9AAB9A9FEF24E38CE055
:1001D000915020408040E1F700C0000084E066DFDD
:1001E000DF91CF910895BB274A3031F4992322F44F
:1001F000BDE2909581959F4F01C0BB27FB0155271C
:10020000AA27880F991FAA1FA41710F0A41B839573
:100210005051B9F7A05DAA3308F0A95DA1930097EA
:1002200079F7B111B1931192CB0100C0DC01FC014F
:10023000672F71917723E1F7329704C07C916D931A
:1002400070836291AE17BF07C8F30895F894FFCF8B
:0C02500054657374004D7367003A200081
:00000001FF
