S010000044656275676765722E73726563EF
S113000012C0DBC22BC02AC029C028C027C026C00A
S113001025C024C023C022C021C020C01FC01EC0D0
S11300201DC01CC01BC011241FBECFE5D4E0DEBF21
S1130030CDBF11E0A0E6B0E0E4E7F9E002C005902E
S11300400D92A83DB107D9F722E0A8EDB1E001C0B7
S11300501D92A43DB207E1F7EDD28AC4D1CF8A98AC
S1130060929A8B98939A85B7836085BF8BB7806487
S11300708BBF089585ED91E090931F0280931E023B
S113008083EF90E0909321028093200285EF90E02B
S1130090909323028093220227EF30E030932502CD
S11300A02093240229EF30E0309327022093260284
S11300B02BEF30E030932902209328022DEF30E01B
S11300C030932B0220932A022FEF30E030932D023D
S11300D020932C0221E031E030932F0220932E0252
S11300E023E031E0309331022093300225E031E007
S11300F0309333022093320227E031E0309335020B
S11301002093340229E031E0309337022093360201
S11301102BE031E030933902209338022DE031E0B6
S113012030933B0220933A022FE031E030933D02BA
S113013020933C0221E131E0309353022093520298
S113014023E131E0309355022093540225E131E05C
S1130150309357022093560227E131E0309359023D
S11301602093580229E131E030935B0220935A0234
S11301702BE131E030935D0220935C022DE131E00C
S113018030935F0220935E022FE131E030939502B9
S113019020939402909397028093960281E291E0D7
S11301A0909399028093980283E291E090939B024A
S11301B080939A0285E291E090939D0280939C0241
S11301C087E291E090939F0280939E0289E291E0FE
S11301D09093D5028093D4028BE291E09093D7025E
S11301E08093D6028DE291E09093D9028093D80255
S11301F08FE291E09093DB028093DA0281E391E055
S113020090933F0280933E0283E391E090934102F6
S11302108093400285E391E09093430280934202ED
S113022087E391E0909345028093440289E391E04F
S113023090934702809346028BE391E090934902A6
S1130240809348028DE391E090934B0280934A029D
S11302508FE391E090934D0280934C0281E491E00E
S113026090934F0280934E0283E491E09093510265
S11302708093500285E491E0909361028093600240
S113028087E491E0909363028093620289E491E0B1
S113029090936502809364028BE491E090936702EB
S11302A0809366028DE491E09093690280936802E2
S11302B08FE491E090936B0280936A0281E591E070
S11302C090936D0280936C0283E591E090936F02AA
S11302D080936E0285E591E09093710280937002A1
S11302E087E591E0909373028093720289E591E02F
S11302F090937502809374028BE591E0909377025A
S1130300809376028DE591E0909379028093780250
S11303108FE591E090937B0280937A0281E691E0ED
S113032090937D0280937C0283E691E090937F0218
S113033080937E0285E691E090938102809380020F
S113034087E691E0909383028093820289E691E0AC
S113035090938502809384028BE691E090938702C8
S1130360809386028DE691E09093890280938802BF
S11303708FE691E090938B0280938A0281E791E06B
S113038090938D0280938C0283E791E090938F0287
S113039080938E0285E791E090939102809390027E
S11303A087E791E0909393028093920289E791E02A
S11303B09093A1028093A0028BE791E09093A30213
S11303C08093A2028DE791E09093A5028093A4020A
S11303D08FE791E09093A7028093A60281E891E0D1
S11303E09093A9028093A80283E891E09093AB02D2
S11303F08093AA0285E891E09093AD028093AC02C9
S113040087E891E09093AF028093AE0289E891E08F
S11304109093B1028093B0028BE891E09093B30281
S11304208093B2028DE891E09093B5028093B40278
S11304308FE891E09093B7028093B60281E991E04E
S11304409093B9028093B80283E991E09093BB0240
S11304508093BA0285E991E09093BD028093BC0237
S113046087E991E09093BF028093BE0289E991E00D
S11304709093C1028093C00289EB91E09093C302F0
S11304808093C2028BE991E09093C5028093C402E9
S113049080EC91E09093C7028093C6028DE991E0CD
S11304A09093C9028093C8028FE991E09093CB02A4
S11304B08093CA0281EA91E09093CD028093CC02AA
S11304C083EA91E09093CF028093CE0285EA91E093
S11304D09093D1028093D00287EA91E09093D30263
S11304E08093D2020895813041F48091D801811122
S11304F01DC08FE291E063D10895823031F4809180
S1130500D801811113C050D10895833049F489EA88
S113051091E055D181E08093DB011092D8010895D8
S1130520843021F41092DB011092D80108958032B6
S113053010F4D9DF08959091D801992321F0909176
S1130540DB01913051F4E82FF0E0EE0FFF1FE2528F
S1130550FE4F8081918142D108951092D901109269
S1130560DA0108951092D9011092DA011092D8019B
S11305701092DB018B9A93988B98939A08958091AB
S1130580DB01813071F48B9A93982FEF80E792E02E
S1130590215080409040E1F700C000008B98939A6E
S11305A0E1DF08958091DB010895823010F4809397
S11305B0D80108958091D80108951F920F920FB623
S11305C00F9211242F933F934F935F936F937F93D5
S11305D08F939F93AF93BF93EF93FF93839B0BC032
S11305E0E091DA01F0E0E05AFF4F9091D901808167
S11305F0890F8093D9018091DA018F5F8093DA01AA
S1130600873039F48091D90192DF1092DA01109287
S1130610D901FF91EF91BF91AF919F918F917F91FC
S11306206F915F914F913F912F910F900FBE0F905B
S11306301F901895BD9ABC9A8D98959A8E98969A03
S11306408F98979AB898C09A2DD123D162E086E00A
S11306505BD182EB91E06CD163E087E055D18BEB09
S113066091E066D107DDFBDC7894FF24F394DD246C
S1130670D394EE24E39400E010E0CC24C39492DFFE
S1130680813021F4002311F0C5D0012FA4D0801BA8
S1130690DCEFD80F0AF086C0D3E0D80F83C0CF5F59
S11306A06C2F812F31D182EC91E042D16C2F812FBC
S11306B02BD18D2FA2D090E03BD1D63014F4DF5F44
S11306C001C0D12FC43019F09FD0813041F39FD0A5
S11306D0859903C0A3D053DF45DF86990BC021E081
S11306E0E21208C08C2D61DF033048F40F5F92D012
S11306F0E12E08C0869B06C0EE2019F003C0E12E4F
S113070001C0EC2C87990DC081E0D8120AC00023E7
S113071021F001507FD0D12E09C0812F46DFD12E88
S113072005C0879B03C0D11001C0DC2CB09913C055
S113073091E0F91210C03EDF811103C08C2D35DF2A
S113074004C0812F32DF66D0012F2CDF813041F4C9
S113075016DFF12E08C0B09B06C0FF2019F003C0BD
S1130760F12E01C0FC2C26DF813019F01BDF813013
S113077011F4C59A01C0C598002311F0C49A01C0B0
S1130780C49810DF882321F0829B02C047D0EADEA0
S11307902FE788E391E0215080409040E1F700C0CA
S11307A000006DCFC12F90CF8091DD01863020F401
S11307B08F5F8093DD0108951092DD0108952091EB
S11307C0DD0144E1249F90011124BC01C901895930
S11307D09F4FC7D008958091DD0108952091DD01D8
S11307E044E1249F90011124BC01C90189599F4F00
S11307F0ADD081E08093DC01089524E1829FC001A3
S1130800112489599F4F08958091DC010895109215
S1130810DC01089581E08093DC010895E7E6F0E0CF
S113082083EF90E010827496E817F907D9F781E016
S11308308093DC011092DD010895AD9A85E38A95D9
S1130840F1F70000AD98089595B3907F95BB95B3EB
S113085082958F70982B95BBF0DF0895CF93C82FA6
S1130860AC9AF2DF8C2F8295807FEEDF8AE78A953F
S1130870F1F700C0CF910895CF93C82FAC98E4DF6F
S11308808C2F8295807FE0DF80E78A95F1F7CF9106
S1130890089581E0F1DF8FE99FE00197F1F700C04F
S11308A00000089584B38F6384BB85B3807C85BBCB
S11308B08FE295E70197F1F700C0000080E3C4DF01
S11308C08FE097E20197F1F700C00000B6DF8FECEC
S11308D097E00197F1F700C00000AFDF8FEC97E0DD
S11308E00197F1F700C0000080E2AEDF8FE097E2ED
S11308F00197F1F700C0000088E2BEDF8CE0BCDFA6
S113090086E0BADFC6DF0895623059F018F461302A
S113091031F00895633039F0643039F00895805827
S113092005C0885503C08C5601C08C52A5DF0895BC
S1130930CF93DF93EC018881882329F021968EDF01
S113094089918111FCCFDF91CF910895FB01DC01E6
S11309500D900020E9F7119701900D920020E1F726
S11309600895FB01DC0101900D920020E1F7089548
S1070970F894FFCF25
S113097401020408102040200000000000000000D0
S1130984000000000000000000000020000000003F
S1130994000000000000000000000000000000202F
S11309A4000000000000000000000000000000003F
S11309B4000000200000000000000000000000000F
S11309C400000000000000200000000000000000FF
S11309D400000000000000000000002000000000EF
S11309E400000000000000000000000000000020DF
S11309F400000000000000000000000000000000EF
S1130A0400000021002200230024002500260027E2
S1130A1400280029002A002B002C002D002E002F72
S1130A24003A003B003C003D003E003F0040005BB8
S1130A34005D005E005F0060007B007C007D007E42
S1130A440030003100320033003400350036003702
S1130A540038003900410042004300440045004688
S1130A64004700480049004A004B004C004D004E2A
S1130A74004F0050005100520053005400550056DA
S1130A84005700580059005A006100620063006472
S1130A9400650066006700680069006A006B006C0A
S1130AA4006D006E006F00700071007300750076B5
S1130AB4007700780079007A0021427265616B3A0C
S1130AC420004465627567676572006265726569D2
S1130AD474002020202020202020202020202020DA
S10B0AE4202020202020000046
S9030000FC
